:020000040800F2
:100000000050002021020008270200082B020008EF
:100010009D020008A1020008E9020008000000009B
:100020000000000000000000000000003103000894
:100030003503000800000000390300089D0900088E
:100040004D0300084D0300084D0300084D03000850
:100050004D0300084D0300084D0300084D03000840
:100060004D0300084D0300084D0300084D03000830
:100070004D0300084D0300084D0300084D03000820
:100080004D0300084D0300084D0300084D03000810
:100090004D0300084D0300084D0300084D03000800
:1000A0004D0300084D0300084D0300084D030008F0
:1000B0004D0300084D0300084D0300084D030008E0
:1000C0004D0300084D0300084D0300084D030008D0
:1000D0004D0300084D0300084D0300084D030008C0
:1000E0004D0300084D0300084D0300080000000008
:1000F0000000000000000000000000000000000000
:1001000000000000000000005FF808F100B583B0B7
:1001100000F0AAF9304B314A1360314A1360314B79
:10012000314A32498B4204D21168196004330432D7
:10013000F7E72A4B1A682E4B9A4200D0FEE7284B6D
:100140001A682C4B9A42F9D1234B2B4A13602B4A45
:1001500013602B4B02E000221A600433294A9342B9
:10016000F9D3254B1B6813B9244B1B6803B1FEE779
:1001700000F086F9694601A800F022F9224C234BD1
:10018000E41AA4100025AC4214DC214C214BE41AE3
:10019000A4100025AC4213DC0099019800F02AFC61
:1001A00005461D4C1D4BE41AA410002C0EDC2846FD
:1001B00000F0E2F8154B53F8253098470135E2E797
:1001C000144B53F8253098470135E3E7013C134BB6
:1001D00053F824309847E8E7BABADECA0000002096
:1001E000840000200000002074AE00088800002079
:1001F0007856341232547698880000202801002066
:10020000880000202C0100207803000878030008F3
:1002100078030008780300087803000878030008D2
:1002200008B5FFF773FF00BEFEE71EF0040F0CBF1A
:10023000EFF30880EFF309807146414A10472DE93A
:10024000F04182B004468846124B5E6B9F6B9D6AFC
:100250001B6B13F0020F03D00E4BDB6A002B0CDB81
:100260000D4800F0B5F8CDF800803B4632462946EF
:10027000204600F009F900BEFEE74BF6AB6100F046
:100280007DF90028ECD0034B4FF00042DA6202B057
:10029000BDE8F08100ED00E0E013000800BEFEE7DD
:1002A0001EF0040F0CBFEFF30880EFF309807146D6
:1002B000244A10472DE9F04182B004468846084B95
:1002C0005E6B9F6B9D6A074800F082F8CDF8008056
:1002D0003B4632462946204600F0D6F800BEFEE7EF
:1002E00000ED00E0F01300081EF0040F0CBFEFF368
:1002F0000880EFF309807146134A10472DE9F04159
:1003000082B004468846084B5E6B9F6B9D6A074827
:1003100000F05EF8CDF800803B4632462946204684
:1003200000F0B2F800BEFEE700ED00E0FC130008AC
:1003300000BEFEE700BEFEE700BEFEE7704700001D
:100340003F020008B5020008FD02000800BEFEE7FB
:1003500074AE0008000000208800002074AE000881
:100360000000000000000000880000202C01002098
:08037000000000000000000085
:10037800FEE7000008B503460C4A12685AB10B4A5A
:100388001068033323F003030344094A934206D851
:10039800064A136008BD054A06491160EFE700F0F8
:1003A8005DFB0C2303604FF0FF30F3E78C00002067
:1003B800004C00202C01002001230360014B0B603E
:1003C800704700BF040000200FB400B583B004AB31
:1003D80053F8042B01938021064800F071FB002894
:1003E80003DD0146034800F037F803B05DF804EB7D
:1003F80004B07047940000202DE9F04385B004460E
:100408000F4643560BB10E461EE0042528462146EA
:10041800ABBE0446384605B0BDE8F08314F9011BAD
:1004280004AA1A4402F8101C0133AB42F6D304AAFA
:100438001344002203F8102C4FF00408E946404604
:100448004946ABBE8046761B002EE3D03546102EBB
:1004580028BF10250023E8E708B5FFF7CDFF08BD42
:1004680008B500F0FDF8024A024B9A6008BD00BFCB
:100478000000000800ED00E008B500F019F908BD1B
:10048800F8B504460D4617461E462748FFF79CFF59
:1004980021682648FFF798FF61682548FFF794FF11
:1004A800A1682448FFF790FFE1682348FFF78CFF15
:1004B80021692248FFF788FF61692148FFF784FF17
:1004C800A1692048FFF780FFE1691F48FFF77CFF1B
:1004D8001E48FFF779FF29461D48FFF775FF1D4C99
:1004E800E16A1D48FFF770FF216B1C48FFF76CFF9E
:1004F800E16B1B48FFF768FF15F0800F0AD115F470
:10050800004F0CD11748FFF75FFF06991648FFF711
:100518005BFFF8BD39461548FFF756FFEFE7314650
:100528001348FFF751FFEDE7C4120008D412000882
:10053800E4120008F4120008041300081413000859
:100548002413000834130008441300085413000847
:100558006013000800ED00E0701300088013000825
:1005680090130008C0130008C8130008A01300085F
:10057800B013000883691A888A4201D000207047A6
:100588000268033A012A03D80233836101207047C5
:100598000020704782B00023019300932C4A13680F
:1005A80043F4803313602A4B1B6803F40033009331
:1005B800019B01330193009B1BB9019BB3F5A06F0D
:1005C800F1D1234B1B6813F4003F06D0012300939D
:1005D800009B012B04D002B0704700230093F7E77B
:1005E8001C4B1A6842F010021A601A6822F00302C3
:1005F8001A601A6842F002021A60A3F580535A681A
:100608005A605A685A605A6842F480625A605A6856
:1006180022F47C125A605A6842F4E8125A601A6846
:1006280042F080721A600A4B1B6813F0007FFAD000
:10063800074B5A6822F003025A605A6842F00202D5
:100648005A60034B5B6803F00C03082BF9D1C2E72F
:10065800001002400020024008B5FFF79BFF08BDCC
:1006680008B5104B1A6842F001021A6059680E4A20
:100678000A405A601A6822F0847222F480321A60A2
:100688001A6822F480221A605A6822F4FE025A601C
:100698004FF41F029A60FFF7DFFF044B4FF0006230
:1006A8009A6008BD001002400000FFF800ED00E06D
:1006B8001F4B5B6803F00C03042B15D0082B17D0D5
:1006C8001BB11C4B1C4A1A6002E01A4B1A4A1A60EA
:1006D800174B5B68C3F30313184AD35CDAB21549A6
:1006E8000B68D3400B607047124B134A1A60EFE750
:1006F8000F4A53685268C3F38343023312F4803FAE
:100708000AD00B4A526812F4003F0BD00C4A02FB85
:1007180003F3084A1360DBE7094A02FB03F3054ABF
:100728001360D5E7044A02FB03F3024A1360CFE7DC
:10073800001002401C00002000127A000C0000206B
:1007480000093D0010B4012823D018B102283FD079
:1007580010BC704707290FD90F29F9D8A1F108044F
:10076800A4000F23A3402A48016821EA030302FAE0
:1007780004F119430160EBE789000F2303FA01F044
:10078800244C236823EA000302FA01F1194321608B
:10079800DEE707290FD90F29DAD8A1F10800800070
:1007A8000F2383401C4C216821EA030302FA00F15D
:1007B80019432160CCE789000F2303FA01F0174C95
:1007C800236823EA000302FA01F119432160BFE715
:1007D80007290FD90F29BBD8A1F108039B000F20C7
:1007E80098400F4C216821EA000002FA03F1014306
:1007F8002160ADE789000F2303FA01F0094C236853
:1008080023EA000302FA01F119432160A0E700BFBF
:100818000408014000080140040C0140000C01409C
:100828000410014000100140012818D010B102281E
:1008380029D07047012A0AD0002A2FD1012303FAB0
:1008480001F11B4A136823EA01031360704701236F
:1008580003FA01F1164A13680B4313607047012A23
:1008680009D0DAB9012303FA01F1124A136823EA1D
:10087800010313607047012303FA01F10D4A13685D
:100888000B4313607047012A09D03AB9012303FAD0
:1008980001F1094A136823EA010313607047012331
:1008A80003FA01F1044A13680B431360704700BF51
:1008B8000C0801400C0C01400C100140034B4FF494
:1008C80080321A60043301221A6070470010024017
:1008D8001F291CD801280BD010B1022810D070474E
:1008E800012303FA01F10A4A13680B4313607047A6
:1008F800012303FA01F1074A13680B431360704799
:10090800012303FA01F1044A13680B43136070478B
:10091800141002401C10024018100240064B1A68BE
:1009280022F001021A601A6822F002021A601A689C
:1009380022F004021A60704710E000E0074B1A68C2
:1009480022F001021A601A6822F002021A600023DB
:10095800034A136004321360704700BF10E000E0E0
:1009680014E000E0084B1860043B1A6842F00102EA
:100978001A60064A11601A6842F002021A60044BB3
:1009880001221A70704700BF14E000E02401002023
:100998001401002008B5064B1B689847054B1B78C7
:1009A80013B1054B1B6808BDFFF7C8FFF9E700BF87
:1009B800240100201401002010E000E010B50024FC
:1009C8000CE0084B1B88084AD25C224102F0010265
:1009D80021460020FFF728FF0134E4B2072CF0D9A4
:1009E80010BD00BF160100200C14000808B5FFF761
:1009F80065FF02210846FFF76BFF02220021084627
:100A0800FFF7A0FE022201210020FFF79BFE022231
:100A180011460020FFF796FE022203210020FFF76F
:100A280091FE022204210020FFF78CFE02220521FC
:100A38000020FFF787FE022206210020FFF782FE32
:100A4800022207210020FFF77DFEFFF767FF02491A
:100A58007D20FFF787FFFEE7C5090008014B1868EE
:100A6800704700BF2000002030B5141E05469BB01B
:100A7800184605DA8B234FF0FF302B601BB030BDD2
:100A88004FF40273ADF80C300CBF234604F1FF336A
:100A9800029305934FF6FF7300910491ADF80E3061
:100AA80002461E9B6946284600F072F8431CBCBFEC
:100AB8008B232B60002CE1D00022009B1A70DDE70D
:100AC80007B5009313460A46014603480068FFF736
:100AD800CBFF03B05DF804FB200000202DE9F047B0
:100AE8008E6882469E420C469046994637D88A8937
:100AF80012F4906F31D00223256809696F1A65696D
:100B080005EB450595FBF3F509F101033B449D42CF
:100B180038BF1D46530530D5294600F035FB06463B
:100B280050B90C234FF0FF30CAF80030A38943F0C6
:100B38004003A381BDE8F0873A46216900F0B4FA82
:100B4800A38923F4906343F08003A38126613E4484
:100B580026604E466561ED1BA5604E4500D94E46A0
:100B680032464146206800F0AAFAA36800209B1B81
:100B7800A36023681E442660DCE72A4600F05EFB7B
:100B880006460028E2D12169504600F0B1FAC8E7CC
:100B98002DE9F04F9DB003938B8980461D060C46C6
:100BA80016460FD50B696BB9402100F0EDFA2060AD
:100BB800206128B90C23C8F800304FF0FF30C7E097
:100BC800402363610023099320238DF829303023C3
:100BD8004FF0010B8DF82A3037463D4615F8013B9A
:100BE8000BB1252B3ED1B7EB060A0BD05346324644
:100BF80021464046FFF772FF013000F0A480099BB0
:100C0800534409933B78002B00F09D8000234FF05C
:100C1800FF32CDE90523049307938DF853301A93D7
:100C28002F46052217F8011B4F4800F02FFA049BA6
:100C3800D0B9D90644BF20228DF853201A0744BFE3
:100C48002B228DF853202A782A2A15D02F460020E7
:100C58000A25079A394611F8013B303B092B4DD933
:100C6800B8B10FE02F46B8E73F4A3D46801A0BFA65
:100C780000F018430490D3E7039A111D12680391FA
:100C8800002A01DB079204E0524243F00203079274
:100C980004933B782E2B0CD17B782A2B33D1039BE2
:100CA80002371A1D1B680392002BB8BF4FF0FF33A1
:100CB80005932E4D03223978284600F0E7F938B11C
:100CC8004023401B03FA00F0049B013703430493BD
:100CD8003978062226487E1C8DF8281000F0D6F9AF
:100CE800002838D0234B13BB039B073323F007039B
:100CF80008330393099B4B4409936DE705FB0232C4
:100D080001200F46A6E700230A2519460137059357
:100D1800384610F8012B303A092A03D9002BC8D0DD
:100D28000591C6E705FB012101230746F0E703AB60
:100D380000932246104B04A94046AFF30080B0F15F
:100D4800FF3F8146D6D1A3895B063FF536AF0998A8
:100D58001DB0BDE8F08F03AB00932246064B04A9F3
:100D6800404600F081F8EAE73EAE000844AE0008CD
:100D780048AE000800000000E50A00082DE9F04729
:100D880091461F468A680B6906469342B8BF1346C8
:100D9800C9F8003091F843200C46DDF8208012B1E4
:100DA8000133C9F800302368990642BFD9F80030EA
:100DB8000233C9F80030256815F0060507D104F19B
:100DC800190AE368D9F800209B1AAB4229DC94F889
:100DD80043302268003318BF012392062ED404F151
:100DE800430239463046C047013021D02368E568C0
:100DF80003F00603042B18BF0025D9F800204FF094
:100E0800000908BFAD1AA368226908BF25EAE5757D
:100E18009342C4BF9B1AED181A344D451AD10020CD
:100E280008E00123524639463046C047013003D115
:100E38004FF0FF30BDE8F0870135C2E73020E118F8
:100E480081F843005A1C94F845102244023382F872
:100E58004310C4E70123224639463046C0470130D3
:100E6800E6D009F10109D8E72DE9F04301F1430C77
:100E78000C46097E85B06E291746064698460C9A98
:100E880000F0B38022D8632936D00AD8002900F0B0
:100E9800B980582900F0838004F1420584F8421093
:100EA80032E0642901D06929F6D120681368050663
:100EB80003F104012AD51B681160002B03DA2D22E7
:100EC8005B4284F843206F480A2239E0732900F016
:100ED8009D8008D86F2920D07029DDD1236843F080
:100EE8002003236003E0752917D07829D4D178230B
:100EF800654884F8453055E0136804F14205191D2A
:100F08001B68116084F8423001238CE01B6810F0E4
:100F1800400F116018BF1BB2CFE713682568181D72
:100F28001060280601D51B6802E06806FBD51B88FF
:100F38006F2914BF0A2208225248002184F843105E
:100F48006568002DA560C0F29580216821F0040134
:100F58002160002B3DD1002D40F08E806546082A87
:100F68000BD12368DB0708D5236962689A42DEBF84
:100F7800302305F8013C05F1FF35ACEB050323618F
:100F8800CDF800803B4603AA21463046FFF7F6FE1F
:100F980001304DD14FF0FF3005B0BDE8F08339483E
:100FA80084F84510136821681D1D1B6815600A0622
:100FB8000BD5CA0744BF41F0200121601BB9226844
:100FC80022F0200222601022B7E74D0648BF9BB2EC
:100FD800EFE76546B3FBF2F102FB1133C35C05F89A
:100FE800013D0B460029F5D1B9E713682568181D9E
:100FF8006169106028061B6801D5196002E06A065D
:10100800FBD51980002365462361B9E71368191DCC
:1010180011601D6862680021284600F037F808B1A1
:10102800401B606063682361002384F84330A7E7AE
:1010380023692A4639463046C0470130AAD023687A
:101048009B0713D4E068039B9842B8BF1846A3E7F0
:1010580001234A4639463046C04701309AD0013507
:10106800E368039A9B1AAB42F2DCEBE7002504F134
:101078001909F5E7002BACD1037804F1420584F88F
:1010880042306CE74FAE000860AE000810B5C9B238
:1010980002449042034601D1002303E01C7801304A
:1010A8008C42F6D1184610BD10B5431E0A44914231
:1010B80000D110BD11F8014B03F8014FF7E7884242
:1010C80010B501EB020307D8421E99420AD011F865
:1010D800014B02F8014FF8E78342F5D98118D21A7B
:1010E800D34200D110BD13F8014D01F8014DF7E7C7
:1010F80038B50546002943D051F8043C0C1F002B95
:10110800B8BFE41800F0D0F81E4A1368104633B987
:10111800636014602846BDE8384000F0C6B8A342B2
:101128000BD921686218934201BF1A685B6852188C
:10113800226063600460EDE713465A680AB1A24270
:10114800FAD919685818A0420BD1206801445818D8
:1011580082421960DED110685268014419605A60F1
:10116800D8E702D90C232B60D4E7206821188A42DB
:1011780001BF116852680918216062605C60C9E7A4
:1011880038BD00BF1801002070B5CD1C25F003053F
:1011980008350C2D38BF0C25002D064601DBA94269
:1011A80003D90C233360002070BD00F07DF8214A7C
:1011B8001468214691B9204C23681BB9304600F0C9
:1011C80063F820602946304600F05EF8431C24D1BD
:1011D8000C233046336000F068F8E4E70B685B1BCB
:1011E80018D40B2B0FD90B60CC18CD50304600F01B
:1011F8005CF804F10B00231D20F00700C31AD3D0BC
:101208005A42E250D0E74B688C4216BF63601360C5
:101218000C46EBE70C464968CCE7C41C24F00304F1
:10122800A04205D0211A304600F02EF80130CFD068
:101238002560DBE7180100201C010020F8B50746EF
:1012480014460E4621B9BDE8F8401146FFF79CBF89
:1012580022B9FFF74DFF25462846F8BD00F026F8CD
:10126800A0420FD221463846FFF78EFF05460028D8
:10127800F2D031462246FFF717FF31463846FFF7CE
:1012880037FFE9E73546E7E738B50023054C05465B
:1012980008462360FFF76EF8431C02D1236803B1A8
:1012A8002B6038BD200100207047704751F8043C7E
:1012B800181F002BBCBF0B58C018704753746163CC
:1012C8006B206672616D653A0A000000205230207A
:1012D8003D2020253038580A0000000020523120D7
:1012E8003D2020253038580A0000000020523220C6
:1012F8003D2020253038580A0000000020523320B5
:101308003D2020253038580A000000002052313294
:10131800203D20253038580A00000000204C52207B
:101328003D2020253038580A000000002050432076
:101338003D2020253038580A000000002050535224
:10134800203D20253038580A000000004653522F0F
:101358004641523A0A0000002043465352203D209D
:1013680020253038580A00002048465352203D2096
:1013780020253038580A00002044465352203D208A
:1013880020253038580A00002041465352203D207D
:1013980020253038580A0000204D4D464152203D46
:1013A80020253038580A00002042464152203D206E
:1013B80020253038580A00004D6973630A00000080
:1013C800204C522F4558435F52455455524E3D20AC
:1013D800253038580A0000005B4861726446617520
:1013E8006C745D0A000000005B4275734661756CA1
:1013F800745D0A005B55736167654661756C745D61
:101408000A00000069505A6C6F73858D94846F6F61
:1014180066687B757980728D8668666E90A699A0DD
:10142800AA9FA27C55534D6577747F858C937974F8
:10143800746B7C8185938793A3887E757894939445
:10144800AEA7A59D725F51556460627C8C9B947CAD
:101458008581889483878683998B736C6F86918145
:1014680093A0909B745C595169766E7F8F9299799D
:10147800757363726C6E7C697A8A6E686C7B9895FA
:1014880099AEA7A7946C60595F75707C8B8A978218
:101498006D7166708384928D8FAA8D6E6B6C8C973C
:1014A80094ADB3A8A276564B475D676581929FA419
:1014B8007E84807F918885857E939973666877900E
:1014C800868DA2949480605E5A687B7B87959594FC
:1014D800826A695E62726F7B6F76876D686B7B93D9
:1014E8009898AFA99D9B6B59575974736E808699CC
:1014F80091747A767D91888585829D906F6E6F87CD
:10150800968BA1A49BA27F5D574F626F678297A4B9
:10151800A4858189848C827E847F969078706F847C
:1015280090878E9B8C9272575A51666E6F819195F7
:1015380098807474667479767F6F7E886D64687B32
:10154800949498AEA5A9926258545A6F69748B8C7A
:101558009D856F72687D8C84908994A08371748254
:10156800959D98B2AAA18A56504A495A6074929990
:101578009E937D867D8493878E86979E80696B7AFD
:10158800898F86A1A39B885C5A5958636D7E929275
:101598008D85726E5F6376797D7B858C76656B7CD5
:1015A8008F9293ABAFA393665F5F585D6673858731
:1015B80088897A7A6F73888A87828D9B8474778901
:1015C800969896ACB6A694665D5B5258606C879305
:1015D8009399827A78758683868A8E9D89797C83A9
:1015E800888D8898A1928E6F5D6358606A70898C27
:1015F8008C8D7B786D66707276757E8877636A7875
:1016080089928FA1AEA5A17E625E575E696E8392B4
:10161800959E837D6F6676757D8388989278727FB4
:10162800869393A0BAACA582615E4E49545E778CCE
:10163800949992847E7B7F8E848C909A9C7A717B1D
:101648007F8483859EA29280635D615A676C7D92D8
:1016580093988C7E75696B75787C8088846D5967E2
:10166800798B9493AEAFA7956D5A575159666E8290
:10167800898B8C807B707082828989979B86777A28
:101688008992918D9FA89C8F6F5F65585F66687F70
:101698008F8E9284787F7A8689878B8FA2937876CB
:1016A800818C938C96A79690735B5D535165697A8C
:1016B8008E889C8A7A7B66757B757D8288816E614F
:1016C800777A848B8CACA69C907168615561676948
:1016D8007D8C8D967E7870687B777F89969F927FC8
:1016E800839390949298AE9B93765E5E4E53606619
:1016F80070898993897A7A78878D8C929EA0967D55
:10170800757F808B9195A7998D84685D5A4E63701B
:10171800728D9294917F756766716D737D878675FA
:10172800657180869591A5AE9E967C6964595C6BBF
:101738005E6E8982938070766C7B807F898D9194B0
:10174800867783838B9592A6A39891796E665B5F63
:101758006261737F87978A8B888290888A8B8E8F45
:101768008A7C757D8086858C9A928E88736D6B666F
:101778006A67677B8188897C7775757B7A7E7C7DD3
:10178800847C716D78818584909F9C978B7A736F28
:10179800636368697881828279747B7E898E8F9190
:1017A80094998D7D71787F869195A2A2988E7F718C
:1017B8006054545E636B737C89898A8E929B999579
:1017C800949693867875777472727B868A8B9290DA
:1017D800948B7E7A77736E696262626A72797B80B3
:1017E8007E82868788848783838483807E83878EAE
:1017F80091847F7D7A73746C6C6E6A72777B7E8855
:1018080085878B88888B878683818585868385866F
:101818008D8B8B8C8587898784807A7D7A737472A7
:10182800747B797C7C7D8085827A7D7B7F838A90BE
:101838009394969994908D877F776A6E6D6A68669F
:101848006664645E64626870737D868D9191929718
:101858009B9B95918F909393897F72717472747822
:10186800787C7E7C766F68686F70797B82808289ED
:10187800868C8D92989794999D9A948B8B8C888955
:10188800857D7D766E6E6561635F5A5F68696D7888
:10189800878F9B9FA3A7A0A29A938A838085847C25
:1018A800817A7470665F6263656666666D6C656B87
:1018B80076787E86888F92939495908B8E94959463
:1018C80094929191928B7F76736E6F6B6362605C7A
:1018D80068706B6C777E808F8F999A98999C9F9986
:1018E8009D969D9D94918B847E7C6F676C686466E1
:1018F8006A6871757376747378827A79787A858B69
:101908008A8B8F888C8E8A8586807F837E7F7E7681
:101918007379736A7274727B7B7677766A69706D95
:101928007A858C99959D9A9594919590938E8D83AF
:10193800847E777B76757377747A7B716F7577772A
:101948007E7B7C848989888580878B888388898247
:10195800878B8F9192919693918D8178706762644D
:1019680066606062595D69696A777D828A91908B49
:101978008D8D8C96928B8F8C918F898580787A7AD1
:101988007A7A777872797C706A706F6D756D707A13
:101998007E838A9190929B9D959C9D9E9F958D8517
:1019A80083807E7B7D7A7B756A6E655E64686F79FD
:1019B8007B7B868B87858D9498A598949789827A66
:1019C80075727176706F6D68686A706E6F7B6E7015
:1019D80070607875707274878C8F8E869990868AFD
:1019E8008B95969C94969A8D7D757C7F828C848548
:1019F80087828187837370716F757A6F6A73737367
:101A080082807F89919291959192948A7773716D72
:101A18006868717D898E8A8A8C8581827F776D69F5
:101A2800646468635C606A6F8496A0A6A4A6A1A596
:101A38009E8C81817B7576787A7C827F848A80709F
:101A48006E6D6C707778777A736D76776D727E8548
:101A58008E9793969793817A80858E989A989A977D
:101A68008B847A625A5D6160635C5C6468717583BB
:101A7800818390A1A8A5A09697A3A49C958E838303
:101A880085888787867D7D75665E5952555F676A4A
:101A9800716C697070767C878D96A1A49F969285EB
:101AA800757476788594979993857F827B6A646349
:101AB8005F6369615F5E5E5C6B74778C96A5B3BB90
:101AC800BCB4ADA1988C857A6F758088898A7F7D32
:101AD8007B72717476787C7D79767672706E7377A6
:101AE800858E8E918F8A8C918D88837D7C797B8081
:101AF8007B7A78777579726B6456535D686F726E0E
:101B08006D6D7275818A98A0A4A8A3A29D90868500
:101B18007F7E888B9195948E80766E757A7C7B77A4
:101B2800797876716B6B70767B828C949A918C8DB8
:101B38008D91908F89827F868D8D93908E8B807307
:101B48006961525254575C62686A6C6D707885910D
:101B5800999DA09C99918C87807A777B81898D8EBD
:101B68008F8887837A79797A7B7766616363686F10
:101B7800757A818B93999FA2A09B9790918F877E6E
:101B88007A7E82898A847D7776706B6D69686865EC
:101B980061625F5C66717F919EA4A8AAA9A7A7A2AB
:101BA8009A908A8078746D6F73787A7C827D756D6F
:101BB8006E6E6F73747372736E6E6E676B778693E7
:101BC8009B9E9C9D99979392948F8C8885847F7611
:101BD8006D666160676D6D6B6C6D6E71757B838C06
:101BE8008C9095938C888688939997948C827B7730
:101BF8007C8285898A8C8D858079736E70767979F7
:101C0800706B6970747C80858B909898958E867EB1
:101C18007E81807A7B7C81848485837F78727272EE
:101C28006F69615C5A61696F737E848C91979B9A26
:101C38009B9493908D857C75727A858C93969394FA
:101C48008F8A87817A73716B67666464626870775C
:101C5800787D848A8F97A1A8ABA59E989088838564
:101C6800898A8C8B867F71675E5B6165686867624D
:101C78005F61666867727F9298999491918C8E9251
:101C880095918A88878B8A837D7D84878682786F01
:101C98006458585A5F656F74797C858F939898A5B6
:101CA800ADB0AAA69C8D827A7D848A8B87837E704C
:101CB8006358565B61646B7377737276777B869132
:101CC8009DA29C9C9798908C89807774797F888A4C
:101CD8008886868178706C635C545056606462694B
:101CE800757D878E969DA3A5A7AAA6A69A908076AD
:101CF800777B807F847F8082807E79746B6866635F
:101D0800645F5B5D6A7C848D92949EA0A19EA09B7B
:101D1800928D7A757173777E889093918F837B7695
:101D2800707377746F6C686363615C6072889EA877
:101D3800AAA09D9F9B928B817D8482827E7B706E00
:101D48006F7177706661666A66686D747F83848177
:101D580088888286888C949BA39E968D837F8183B6
:101D68008593938F938E7C6F5C525F66625E636629
:101D78006A72727583959CA5AFAEABA39D918A8656
:101D88007E83888588838B8C868571665E5F6161BA
:101D98005D505763686F7071798D979CA5A39F9864
:101DA8009594887A6D67717A82878F919392897BEF
:101DB800716F66635E5F60696F6C7278828F9B98E3
:101DC800979D9C9EA0A4A0968E817E7A6D676A746A
:101DD8007D838A7A76746C6D70797D85827C7B7D53
:101DE8007C7A80888E969B9A99938D827C7B7D7D68
:101DF800797B7D7B78746F70717A827E7D7B746B62
:101E080064626771706F727C84838C8B929A9D9FD9
:101E180094918178787C87898C9091918A7D74706F
:101E28006B727D80817F7E7B736C666D7176798045
:101E380085848580848A8E8D9498A0A19C989B9790
:101E48008C8C817D7A6E656A63646B69666467658C
:101E5800696B6C767D848D8E96999C9592918E8F08
:101E68008C888589837C828380817E797B70646499
:101E78005A575B585B626F78838D909EA4ADABA573
:101E88009F9994898780878B908B8786786D6D6DF5
:101E98006B726A63625D52555058708797A1ABA800
:101EA800ADA8A19EA09E9A9C98988F84796F6D6D1D
:101EB8007174726E665E6160636A71737D7A747143
:101EC8006869707C8492999DA7A49D9B979594922C
:101ED8008C8D89786A5E585860626B7575757B7CE5
:101EE8007B7F7E808686868988878B8E9298989459
:101EF800938C88837C7C7E7F7A7F848886827975C0
:101F080077737676736D6D6E768184868F8C8C8E02
:101F1800828284817E838284898382828080848491
:101F28007D7B7877756E65606467737A7A77787D7C
:101F3800818A8B8A908C898E8681817F838F949AFF
:101F48009D968D84817D7978787E817E7670675FB5
:101F58005D575F6C7073787A808B939FAAAFAEAC35
:101F6800A2968C86828481878E8F8D7F756B696639
:101F78006562686B6B6A5F5C5B606B7C8C90969A41
:101F88009B9A948F9196948E898986857F7E7A8193
:101F9800848280685E5B595658656B6B7274818A5F
:101FA8008E8B8E9BA7ACA295909A959191919695C0
:101FB800867C737165534D5562686C6C787C7F7C48
:101FC8007F8A888B94A0A29C979296968C807C7B23
:101FD8007A7E7B8391918B827D7669534D504E53E7
:101FE8005E6E7C837B7C868686939CAAAFA89D9632
:101FF800937F6B5E616E767682949B9B908B897ED5
:102008006C5D57545757606F7E8D979E9894908A51
:102018008D8B848186837871696F77838FA4AFB045
:10202800A89D937E63575A5A65656B7C8E8B828018
:102038007E8287898788817A767E7D74757F889489
:1020480096989C968E7F7E7A69574C505B686C7C1C
:10205800919F988785796B646371838D898C918C46
:10206800817B838F9BA0ABB2ADA58C7C7760484207
:10207800445163616F858E908989868283868D8CB1
:10208800898C90968D7E7A83898F959AA8AEA59231
:1020980087765940393A455260778C928E89868383
:1020A8007B82868B8A8583888D7F747B8B949795BA
:1020B8009BA29D8B7A766E5242484E5C666E8494E3
:1020C800958F8D8C8079808A93929092989B857059
:1020D8006E777E8388959B948878796D554A5C687D
:1020E800778584979B9187837E78787D8B95908D73
:1020F800909493826D717B797D818F9DA19581816B
:10210800714F3F43495B6E7C97A8A194867F776F98
:10211800727F8A888887858471636B7C88969CA285
:10212800ACA394827F725C4F505E6D797D8C9A9AD5
:102138008D857F716A70727A7878869395888385A1
:102148009499979DA4A59F8F7A766A4F4753617497
:102158007F8494988D7F736B656A76868C8D8B8B64
:10216800928B776E777F8A9196A5ABA394827D6CCC
:102178004E40465265757D8B8E897B726B65718189
:102188008E97979EA19E937C70727E85929CABAD34
:10219800A28C73715B40393F5068747A939D9D950A
:1021A800867F7A8388888B8C94999D98867F82878E
:1021B8008A8E8E979D9587716C5C3C3742567583E5
:1021C80089979C9686756966737F868D9093999991
:1021D8008B7A787D868F90939692856D6063594D42
:1021E8004E55647F8E96A2A39E918172707F8A8ECF
:1021F8008A898D908D7966666F7986919DADACA43C
:102208008C7B735946434E627D89909A9D9B91873A
:102218007A7784878582838A8B85716468707B86E8
:102228008F99A5A69F8878715645434A637B8A95FE
:10223800A3A3998572686C7E81818181848B847661
:1022480071747E8B959BA4A59F907B726F5E5B5F7C
:10225800667A87888886807D7469616D79858787C5
:102268009097A399867B7C86919492989D9F917A6A
:10227800776C5953555F7C8E8E928D837867575B48
:1022880070818E8D8A8F909585746E7584949A9DD1
:10229800A8A7A28B786C56484547556C77858E90D1
:1022A8008C85796B757E87908F93959A94867777CE
:1022B80080909E9E9F9B988C7B6D5B4742495165A1
:1022C8007883909693908A7E7882898E8D85848B88
:1022D80096938D818089919997969390827668518B
:1022E80046474B586B788890908B80796E768493AC
:1022F8009C9A98949C93816E656F818F90938E8E33
:10230800897E745E50505660707C868E8E8E8A856B
:102318007C79828A92918A898B928C7B716C758187
:102328008C9096989A948F7E6153505864757A86EB
:10233800919B9B9486787F848E8F88807982868310
:102348007771727E929B9D92877D817B67584B4DFA
:102358005C6F79838A9396928D7F7C7D7E817F7C6A
:1023680076777F7D7772728094A5B0AFA5998D87B7
:102378007661524A5064747D8181828285837E7D34
:10238800828990938C8382817F7B77777D8B98A3DA
:10239800A9A89B92887E6F5F514F5B68747B7D7F95
:1023A80080817F7D7C7E86888985868A827D76731A
:1023B8007A86929EA6A29A90887F73665752566034
:1023C8006B7276767375788087888C8C8A8C8E8F02
:1023D80090898482848B92979A9C958B84766A6183
:1023E80057555B646D7A8185817A7A7B80848A8F80
:1023F800909392908D8B878283838E9AA0A39F95CA
:10240800867E70655C4F4B4E555C6971777D808325
:10241800858A8F9496918F8C8C8D89847974747C3D
:102428008A939DA0998D827669625955565A636D33
:10243800777E8686858B939A9F9A928F89838180EF
:102448007B78797D828B929B9E958B8077716A6170
:102458005C5A59606670798085898F92969A9E9E9B
:102468009B928988827A747272757D838A908E8B2A
:102478008478706B696A6C696969696F72747A7F4C
:10248800858C979D9E99948E8E8B83817B77757CA6
:1024980083888F8F8A88827A7269626064676E6FB8
:1024A800717072787E828A959AA0A29D97928F8C7D
:1024B8008B86807D7B7E808385888A877F746D6A22
:1024C800696A6B6D707478797C7A78787C82899384
:1024D800939293908C8C8A87837F7B7D7E7F7E7E90
:1024E8007C797875716B67676B6E7172767B84899E
:1024F8008E908F8E8D9090928E8A8987837F7D793A
:102508007571727A868F8F8E898179726D6C6C6F16
:1025180072777A77787B858B92959694908B848462
:1025280084818184827F7C79797B7D81858A8B8691
:102538008178706C6A6C6E7172777B7B7B797E8236
:1025480087898D8F8D8A827D7B7A7A7A7D7D80815D
:102558008386878D8F9394908C82766B646365678E
:10256800696B7072787B80868E94989995938A842B
:10257800817F807F818082858387888C8F91918DF0
:10258800877E75706D6C6E6D6E7173716E6D707621
:102598007E85888B8B8B8A868485858385868583D3
:1025A8007D78787D838A8F8D88867E756D696D715B
:1025B80075797C7A7A7874777D84888C8C8988821E
:1025C8007E7A797A7D83898D8C8A8785888E94979F
:1025D80095928A80766C67676B6F74757572706E8A
:1025E8006F767E84898C93918D8B8986838384878B
:1025F8008685837F7E82878D8E908F8980777069AC
:10260800676361626467696A696E777F86888E929C
:102618009292939392938F8E8E8F8E8B87817E7FEB
:102628007D7E7F7C7671706D6E6B6B6F7275767761
:1026380075767A7E84898B8D8C8E939695918D8B09
:102648008C8E8D8A8685868A86817D7C7A75716D69
:102658006C6C6D6D6C6D6E6F6E6F747A8083878C29
:102668008E8884828185888C8D8D8B8B89878482E6
:1026780081808181827F7F808080827E77736F6F87
:102688006D686868696E767F84847E81868B93978F
:102698009BA19F9B9187807D7D7D8080837F7D7EB0
:1026A8007D7C7D7D7C807C7E86807C777472696E83
:1026B8006A696A706F71797F7F808F9595929BA008
:1026C8009B98999285817E7874778088838789869C
:1026D800848282786D65646160696E7069686A6B0E
:1026E8006D6A6E78838A8E9290979EA1A19992893D
:1026F800837A79808488898884858A8A847C7A7FA9
:10270800828078716D6E72737372778692979A9ED3
:102718009D9B9794938F8A7E72645F666C717982B1
:1027280087888277706A676966666666625C5B61DD
:102738006B70747C86939CA4A9A7A9ABACA49A904F
:102748008A807168676971767A828A93958E86889D
:102758008889857B6F66626065656771808C9198F2
:10276800A2A7A7A39E9C9A938A7F726B6A655F61F2
:1027780068717A8182817974716D696B6F6A63613E
:1027880067717674747A828B939A9FA7ADAEA69F71
:102798009C978E7E726B6C70767C828C959A9081F9
:1027A8007A797A7A776F6662616262616772787D38
:1027B8008896A1A9AAABA89F978A7E706E6F6D6B49
:1027C8006C6F707475797A79797A7C7F888B82736B
:1027D8006865676665686F777D868F99A2AEB2ABCC
:1027E800A5A7A89E92857C76737169656B767C7ABD
:1027F8007A7E83858688857D746D6A686A7074714F
:102808006E747C8284898F93969798928A837C725F
:102818006C6F706F6E747D8183827F7E7D858D89FC
:102828007E7977756E696B6E72767C87909CAAB09C
:10283800AEADAFA597887A6F696A6B6B696D79835E
:1028480082858A8A868688877F746E665E5959571C
:1028580057626F7B878F99A2A9A6A4A4998C8881B7
:1028680074706F6C6561646D73767D8382828B9200
:102878009188857F797474726F71767F8387909958
:10288800A0A5A8AAA69A8B847A747877706B6E79BB
:10289800818181807D7E7E7F79727271716C686DB5
:1028A8006E676A72777B81868F9698A1A1908784DC
:1028B8007B716C717C7B74787D818587848388913A
:1028C80099958C8A877C746A5E5D61646B6F74828B
:1028D8008F939A9C9BA39D9793837C7E767576773E
:1028E80076737883878987858E8F8C8B857D7772C1
:1028F80070696064686663676E757B858F93929272
:1029080096908586868482838688868B8E867E7955
:102918007D8182858985817F7E776B68686C6F721F
:102928007B8286878B908D85817C76747C8681817D
:1029380088878584858784838286898587867C7352
:10294800767773706E6F716E70797C7D81898884FB
:102958008C8E87848689817D7B76798083888C8834
:10296800858C908C8F918B898C8A837F7B79756716
:102978005F64696E797F818785827C6F696E7980F3
:102988007F87918D8A908B83807D7A7A84888986E7
:1029980084868C8A7B7E7F7B7D7A7B787979756D5E
:1029A800646A736E6871767C818586888F979B9C34
:1029B8009A969B9C9A99978B828282827E7E7C785B
:1029C800736B6F706A6E7775737A75706E68646210
:1029D8006264707A7C82909B97969994989EA39E45
:1029E8009996929185777170686162656C76787B4B
:1029F8007876757A766B73716D717A7C7C81889242
:102A0800979E9FA3A8A3A4A0958783847E7C7C7EA1
:102A18007B79787B7F7D80857D75716B68645D5877
:102A280056575E6C7577808F96928F909495999B88
:102A3800928B88868283808280797A7D817F828B5F
:102A4800959285818279736F635D60615B595B657F
:102A580073787F8A99A2A6A9ACA89E9A98908A862C
:102A68007F797675787A78828C8F8D8B87827B6B6D
:102A7800635C50515A5B5D6A726F757B8288909A6D
:102A8800A4A6A19EA0A19A8E8A877F7F8084898E22
:102A98008D87807A7D796F696B64605E595E5F5D52
:102AA8006772747C8690979DA1A19A95959193924F
:102AB8008F8D82737279797D84898C8F8E89847ADF
:102AC800706B6056595B5960696A6C7075838D9438
:102AD800A3AFB0A99F9C9B99978F807976767777DB
:102AE800777F8685888C8984817A70645A5E64636E
:102AF8006A6E6A6A6D7173757D8D98999A999B9EB5
:102B08009D9D988D8283827C7D8081837F797B7B6C
:102B18007C80786E6E6E706B6164666363686F77D5
:102B28008187929B999A9D9C9CA19E978E837D7F7D
:102B38008388908D8E9495938B8480715F585355BC
:102B480058595A5D60646B74777F8A8F969C969605
:102B5800989EA49D90898882807A797F7D838788D2
:102B68008B8E8D8A7B6C67666464645D5960615C7A
:102B7800636A7A8B8C96A2A5A8A39FA29A8E8A7E56
:102B88007B82838989858C908F8D8D8A7F78716708
:102B980062686D6E665F6770717371767F7E82851D
:102BA800848A949599908A8E8985868684878C8C68
:102BB800898D9396908079796F6A645E5C545259D6
:102BC8005B63707883888B9295949B9C9B99928D7C
:102BD80082787981858387959DA09E98918A7C7457
:102BE800695E6264645C53555A60666A6F78828E67
:102BF80090909BA8AEABA19C9C958B847C78787DAB
:102C08008081888F928E837A786F6A6B68625D6044
:102C18005D5A5F68737A7C8493979A9C9A9C979381
:102C28009186878B8C8B86838889878C8A867F7B25
:102C3800756861626B6C635F676A6E706C6E737ADD
:102C4800838382909AA1A39B9B988F8D8B837D7F92
:102C58008384858A949C978C8E89817D7169635A57
:102C680058554F5762696B6E7782878C95999EA1EC
:102C7800A19E95898B8F877C7C83868C8C878885A1
:102C8800807C716F7A7E7A6F686764616061606268
:102C98006A757476808E9B9CA0A6A7A39C928C864E
:102CA8007E807E7C878C8D8984847F79787C7D7119
:102CB8006B6E6863676C73777178878687888085A1
:102CC8008B8E8E86878D908C84818482878B8B8A6D
:102CD800868A8B7C74787C7E766C6D706D706B6484
:102CE80063676E6C717D858D92939A9B979590889A
:102CF800817E838077808A90918D8F908A86817D6E
:102D080078746F675F666E6D6C666A7372767D7CC9
:102D1800808892999591979996908D949695948B91
:102D2800837F7E7D706B7379797A727172656B6F50
:102D38006E6D6B777A7973737E868B86909FA2927D
:102D4800858689887E7B8E998E8D91928E828185EB
:102D58007E7469706E5C57585F6964647782848991
:102D680084828B8E918E93A09A8F8881817D7F8AB1
:102D7800897E7982918A7B848F94928A8B8B7F79E2
:102D88006E58504D4C4F545F6C798689929E9EA325
:102D9800A29D9B928E90847D7F7E807C757E8889A3
:102DA80089868B908A827C7C7B74665D5B585458DC
:102DB8006562626F7B8A918F979F9FA49E95979378
:102DC800928C7979787070757B80879296918F89CB
:102DD800878472656363645C5B626670808A959FB2
:102DE800A3A99A8C918C807D7E83817E847F787361
:102DF800787F797D8C9295938A877D7370656466F8
:102E080064696659606F757F87939E9F9DA29E93A4
:102E18008E908879767474756968747782989C9BAB
:102E28009F9F9B86776D62615C555D5F5C6770797B
:102E3800848E9697989A9FA69B8F948B8489888571
:102E4800847B77796F6E777C7D7D85898483796CC7
:102E58006F6B615F5A5D65738081888D8E989B9AD0
:102E6800A4A19EA18F83817D7E736C71757C7D7C0E
:102E7800878A8587807978716B6A67625B626F6F12
:102E8800798B8F9693888D8C8A9394919793918B55
:102E980083887B7070727675828D858286888A8732
:102EA8007F82817B715E5756545F6A707F868E95EC
:102EB8009097A29A999A939190938D7B716B707762
:102EC800737D8A898B897D7A7A7B76707470656464
:102ED80066676D71787E7E828789959893979CA0A6
:102EE8009B979F9787796A676567737776828685E8
:102EF800827D807772746961656E7675787F868E5B
:102F080096969AA7A9A1958F877D81817775726F0B
:102F180075727580817E7E81807E848174706E6A10
:102F2800686770787F85818085888B9096A19A984C
:102F38009B908B87857E6C63676A677175767B83E8
:102F48008D8988919188786A635A5A6467707D82FE
:102F58008B908D93959D9F939B9B97968D8981765A
:102F68007577767983867E7378787071737A7871DD
:102F7800726C6369707175777D858E928F909A9D5A
:102F88009B9F9B999A978A746C6967696B76807E18
:102F98007E85827E7F817F6F6968615E5D636A740A
:102FA8007F878E98A3A4A29C9A95908F888B8884FB
:102FB8007C726E7074707A7D797F898C8281868844
:102FC8007F75716F6C6C7066647074767C8792958F
:102FD8009BA199999B96958B817B76736F7072777D
:102FE8007E80818A8F8A8B84797064645F5865706B
:102FF8006C717B7F838992928D929897929092922E
:103008008F8B857E7F8285787177757478787D81DE
:103018007E7E756B6B6766676A6A738284828A963E
:103028009B9C9FA6A6A3A79C8E847D7368646C74E2
:103038006E6F7776777D84847E7D817A706963662A
:103048006A6E6F75838A8E908E9091919A9797A5E4
:103058009F958D868174717472656471726F717ECB
:103068008383838382797875696267696B717783F3
:103078008B8B9496979DA0A1A39C93908B8275733C
:10308800797C76717D827F80817B77726F6C6163DA
:103098006B6762666F747B878B898D979D98979E07
:1030A8009FA29F94908E8A847C736E6B646C7274FA
:1030B8007E8385807E7C75716C67605B6069686DF6
:1030C8007F86899196A0A0A2ACA197988F857D7ADA
:1030D8007D796F70706C6F7A8180838889877F793A
:1030E8007672716E6A6B75787C7E797C7E81878951
:1030F80092A2A1999D948A8986857C737177736B56
:10310800757F82848D8E8B86817E6D62605A596050
:103118006A75797D83878C8F949A9C999496928608
:10312800828485827A767C807B82857D7D82817BA4
:103138007674776B64656261667679767E84888C4E
:103148008E929CA3A8A6A3A59D948F84766B62619A
:103158006564707C7B818B8C8581807B6E656867FC
:1031680060636F71717A83889099A2A39DA39C92E2
:1031780095908A88837C796F6C74716F7275777B90
:10318800827F7A7879746C6E6E72767977727477DA
:10319800797C858E9397A1A89C9EA1999388847D1C
:1031A800737176736B737C80838E928C827A73636F
:1031B8005B5C5F6166696C767D7F858D92999A9D6F
:1031C800A39E9FA0958E89817A7675787B73717995
:1031D8007C7C80867E7875766F6A6E6D6B676666B6
:1031E8006B6F757E868C93999EA8A8A6ACA1968DC8
:1031F800817A736C6B6F6768777D7F89908882812D
:103208007C726E71716F6B6C6D6F757C8284878E4A
:1032180092939D9E999F9A8F8C837E7B756F706C1D
:1032280066737B7E858B8680807B73747977726EFC
:103238006E6F72767B7F82858F92939FA198999407
:10324800857E7675756E6C72726F7B888B8D8F89B3
:103258007F7C78706F73716D6D6E6F747A7D7F830C
:10326800858C90929DA0999A998D85828484787195
:10327800716E687280818389898582807C7879748F
:103288006D6665676A7072767C7F858F96A0A69F4B
:10329800A1A1938E8983827A6F6D746F77848481FC
:1032A8008280767474706E6F6D6B6A676E767775F0
:1032B80077797D868C92A0A9A2A5A49694928F89ED
:1032C8007F7471726D7782827F83847B7A79756E61
:1032D8006D695F5C5E64686D71778185929B9FA85C
:1032E800ADA4A09F908B888482776D6B71717B876A
:1032F800858286867E7B7C776F6E6C68676B707262
:10330800717173757A858D919EA9A5A3A3989590DF
:1033180087827366636966707E7B7C85888387880D
:10332800827E79736A696C6C6E6E6F7378828E9523
:1033380097A1A79F9D988C8A867E7F75676B787505
:103348007A85817D83848084817E7B796F6C706FC0
:1033580070707070747A838B91959FA5A19D9E94CF
:103368008B837B76645B606766717F7F7F898F8CD8
:103378008D8C847B746C66676A6C6B6D7176828CDD
:10338800969B9EA5AAA19D9C8E8A867E766A626679
:10339800716E717F807D858B858787817E78747259
:1033A800736F6E6C68676E78808B9094A0A69FA1EF
:1033B800A4958F8D847C6F686D726C73807D798223
:1033C80085807F7B77716D6A6A6C6C6F6A696C76D1
:1033D800888C969C989FA3A4A9A598938D827B71AD
:1033E800666F73676E7C7F7E868982817D786E6A60
:1033F8006C68676A6D66646F7F8A949C9EA1A5A5B8
:103408009EA09A8988837C776D6A6D6F666F7875E0
:103418007D8B8C868B8B817E857E787574706564D8
:10342800656F7676828C929CA29C9A9889837C742C
:103438007069666D736C73828992A2A196988F7D6C
:1034480072736E636364656366707A7E8491969A1C
:10345800A3A89E9A95897E74797673767E7D788204
:1034680081848D8D858285807B76726B67656361CB
:103478005D6270787D878E92A0B2B2ADAC9F968E59
:103488007C777162606967697475798285848482E2
:103498007B7977726E6A6363666A7983888F999D90
:1034A8009BA8B0AAA5A198928C81786D6667656380
:1034B800686E747A83847B7C7E7D7F83807979785B
:1034C8006D666D757276808A9099AAA8A4A1978E68
:1034D800847C756C6164656169778287939796943B
:1034E8008D847E7C726965676863636A70747E899F
:1034F8008E93A5A9A7AB9B8B887F7B7F766D76760D
:103508006A717C80868D8B8C8D8680807A706C6ADF
:10351800686364676D76767A818597A9ADACACA04F
:10352800958B808173636267626A797D848C8C8AEB
:103538008E88807E7E796E6B6B6C6E747B7B818AE5
:103548008D878B9A9C9898938A857C7B7667676D24
:103558006B6A797D7F8E8F8883837E7C81807D7B7B
:1035680079726D6C6F706F747D8283919F9EA0A03D
:1035780098918A82817B6F6D68626B7B828D979B45
:1035880099938E86827D726761636361646A6C6FEA
:103598007A82848999A2A7A89F9A938F938C7E8117
:1035A80083726F7776797E7F7D7B7B766E6C6B64BA
:1035B8005E63696566717571737A7D8197A6AABB2A
:1035C800BAAFA59793928076796F6A71757880857E
:1035D80084827F786E6C726E615B5F6468727980DA
:1035E800878E918E94A1A0A2A79E9B93898B8473AA
:1035F80071766F6D73757C817F7E7B7B7D7B787D3B
:103608007B736F6F6A6E706E7072787C7F8A949825
:103618009EA2A29F939295887C786D656D7477823F
:103628008B8C8984817E7675736A676A6A6D727617
:1036380075777E82808494999B9F999796929693AA
:103648008C87847A72777675787777747072706BF6
:103658006D6D6A6C6D6D747D7E7D7D7F86888E9FB5
:10366800A6AFB4AAA49C8E8B85736B6C625E666AE7
:103678006D71787E7D797F847E797268686C6E76EC
:103688008181848A878D8F929C9C9EA19C958F8B2B
:10369800877D726F6D66646E7576797A7D7F7D82BF
:1036A8008884817F76717372747777787A797B8072
:1036B800848D94969C9993949592887E7578777466
:1036C8007F898A8C8D8A86807C7A716865605D6264
:1036D8006563676D6F73777C868D9398989C9B96CE
:1036E8009C9E979790827C7E78767D7C7E807B7985
:1036F8007E7B7A7B746B6967686D696565696B71D8
:103708007D879199A5AEABABA9A2A0978A837C725D
:103718006E6E6B6C7275777D84878987817D756E17
:103728007174747172706B6C6A6D757B838C94970D
:103738009B9B96969790878382817B757172716E39
:10374800757D858A8A89898782807E7977736B6798
:103758006869696D757D828790999E9D9795938E0E
:10376800898B8D8682837D77736F71777977767889
:10377800797B7E7C7C7F7B737373727271747A7CC5
:103788007E89979CA0A1A09C978E857F76706D6A94
:1037980067686A6E747B7F80848C93948D89867E3B
:1037A800777775727374797F807F858D8E8F8E871A
:1037B8008383807C7A7572727072797A7A80878650
:1037C80084878E949592908D897F7875726F6D6ECF
:1037D800707276797A7D807F7C7C8085847F7E801C
:1037E8007F7F868C90929597938D898885817D7847
:1037F80075726F6E6C6C6F73747A81848484828046
:103808007B76767D807D7B7F82807F80848A8D8FAA
:103818008D8B8A8A8A8888837E7B7C7E7A736E7297
:1038280073747A82888C8E9090897F7A7A77726D99
:103838006A696A6D70767C838B8D90979B98979553
:103848008F8B878687847B7C817C787979797C7B70
:103858007879746F6E6E6C6B6B686C7577787A7E3E
:103868008487888D989D9D9E9E9A908985827E7773
:1038780073737274777A7D81848584858582807A72
:10388800736E6A6C71747378848B8A8A8A8C918F50
:103898008B8A86807E7C79767371757C81878B8C28
:1038A80092938F8D8F908C898682786E696663611A
:1038B800626466696A6F757B8085888B9294918E45
:1038C80089838182848B908D959C9793908B8A892C
:1038D800837C786F6A6B69626061636A6F71767AFC
:1038E8007D818180858E9090939595928E8C8D8B1D
:1038F800888687847F7D7C7B7A7A76737375777602
:1039080073717373777C7F7F858B8B8B85818383C2
:103918007F7C7B78777A7F818284878D9090939162
:103928008A868178737474727477797C79787C7FED
:10393800808282807E7B7A7C7A757474767D8387B8
:103948008A8C8E8E919291908E8C8F8C817B7774DD
:10395800746D6A6D6C6D7478787C808283828386DE
:103968008685817B797E8486898F939594908B8ACE
:1039780087807B79716A68686969696D757C8188F7
:103988008B898D8A85848686828183858177747AFE
:103998007D7D7D7B7E838688878785817E7C7D7E15
:1039A8007E7A79787A787A7E848C91979B9D958EA9
:1039B800887F7770634C4A52595F65718391949AF6
:1039C800A2A5A1999190918B817F84848078767D3E
:1039D800807A7580898B8684888A7C6D6862605B52
:1039E8005A5E696F6E7886939A9F9FA3A4988B837B
:1039F800857D7B7B787577797D857D8285807E80E6
:103A080081858A868587847C777372726F6C6F7202
:103A1800757F848C908D83817F7B797378797F83A0
:103A280085868B8A848680868F87818E989C998DDF
:103A38008A8C85766D635A534D515D6266768491A2
:103A48009798989A8F827C797774787C81898F8D02
:103A5800959891948F857B7D7E8489878A8A8579DC
:103A68006F676766615E6C747680848C928F8380E2
:103A78007B7777787C828683818587828780808739
:103A88007E7D858F949A999C9F9A91867D777262A4
:103A980056525457616A6F78797E83827B787A8030
:103AA80082899394959393939388848684878D923F
:103AB800969D9A98968D7D6A5B544F49484E5F6AE9
:103AC8006F78848F8E868688878485898D969A9369
:103AD80091928E8E8D898A897A71777C7D7E818795
:103AE8008D867E78726B625D595E68707C8893976C
:103AF80096929088817F807D7A7C7F827F817F8B80
:103B0800887E80858580858A9A9D98918A82786A40
:103B1800615F5855566870777A7E8C94948D8E8B39
:103B28008A817C7A7D7F7D7E858A8E928C90928F29
:103B3800878687898D8D8E877E6E645D594E4B5141
:103B48005B697285959FA19F98938C7D76787E8618
:103B58008E929492948C8C84767473727375788533
:103B68008E8D8786847B736A686662616A6F7983E3
:103B7800858D918C88888586868180868B878389C8
:103B88008C8C8780848A837878818D8F8B8B9190B9
:103B9800847466605A5354606771777F8C8D848013
:103BA80082827F828B90959597969A978F8D898C34
:103BB8008A88837F8084837F7E76685D5C595959C3
:103BC8005C646E71798184878E9395948E8E908FC4
:103BD8008C8C8E8E8C929290918C807878736F6D8D
:103BE800737D837F8285807B726A696761676C7287
:103BF80079818A9292909190918E8783878A868024
:103C08007C7C7F76727880818387909895908E8D62
:103C180085837C746E655F62606063606B7A8186A1
:103C28008D9297978F8C8F8D837D7E8685808282FB
:103C3800848988837F8188908F8C88837E776D6262
:103C48005A5A5D5F66717C858A8C8E9390878889C5
:103C58008A8D91908B888584817A777B7D7C7A7A2E
:103C68007E868B8884878A867E756E716F696B7095
:103C7800767A7D8287878C908F8E8A837B786F6C2B
:103C880071727A817D828E8E8C8889949D969292AB
:103C98008E84796C625F5857616A737B7C838A8BE8
:103CA8008A8785868989898982807F8489837E7FBE
:103CB800878E9391919294938C887D70655F585A02
:103CC8005C5C646B70767A7E888D8E919493929307
:103CD800918D88878A8A8988898887837E79756F94
:103CE8006E7375777B7D7D807D7A76757779797946
:103CF8007D7B7B7D80807E7E82898D8E8D8D8B887D
:103D08008683807D7B7B7D7F8486838587857F7B9B
:103D180078787C7E81807D7B7D83827D75727476E8
:103D280076757374797C80807F8182878F94939471
:103D38009698948E8882807D7D7E7E7C797B7A744D
:103D48006E6E71777D7E7E7D80817D7976777779DD
:103D58007C7F7E7E8184858384878C8E8B87827C22
:103D68007777797A7C8083878D908E8B8986827C21
:103D78007572706E71777E808183888986817C7A7E
:103D880077787A7A7A7B7C7E80828180858E949619
:103D9800969391908B857F756C6B7073726D6C6E5A
:103DA8006F717476797F8486888A8A8887898886FD
:103DB80085848584828182818080828686858482CA
:103DC8007D7874716F6F6F71767B7F7F8084888A4E
:103DD800898686888887888884818185837C7977A5
:103DE80074727375797E82848586878482818281E4
:103DF8007F7E8082838182838382858B8E8A857F82
:103E0800766E686666676A727B838A8C8C8E9193FD
:103E1800928E8987827A7776737173787C7E7F83B6
:103E280086868686868585827E7C79757273757AA4
:103E38007F808286898A8D90908B858485817B7727
:103E4800736E6C6C6E7275797E83878887888A8CAE
:103E58008C89868684827E7D7D7B7B808688888629
:103E680084807A747271707072787E838587878790
:103E78008785827F7E7D7B7D7F7E7B7D8286868433
:103E88008483817F8080808082848684807D7C7C1E
:103E98007D7D7C7B7C7D7C7B7C7B797A7E8181804F
:103EA80080807D79787A7C7D7F8487898B8A8B8CEA
:103EB8008F908F8C8A888582817C767274757574F0
:103EC8007273726F6D6F7173767C84888B8C8D8D35
:103ED8008D8D8B87868684818382807F808486848B
:103EE800807E7A746F6F70707073787D8080828244
:103EF800848789888788868483817F7D7F84888872
:103F080086878885817E7D7A767374757576787AEA
:103F18007B7E82848688898889898783818282805A
:103F28007D7A7976706F7276777B838D9293918F95
:103F38008C88837D7875727071727272757A8185DA
:103F480086888C8C878383817E79797B7D7C7C7E57
:103F58008184878B8E8F8E8B88847F78727174763C
:103F6800757576767472737779797E868B8D8E8D7A
:103F78008D8B8A8A888683838384848383858889D2
:103F880086827F7A716966666766696F777D8084E5
:103F9800888A8C8D8F8D8B888786837F7B7A7B7EC2
:103FA8007F808386878788898985807F7E7A7775F1
:103FB800747475757679797C7F818182828285882F
:103FC80088878685827D7776777574787F868B8FEC
:103FD80090918F8D8B87827D7C7A7875706E7075E5
:103FE800797B7D7F807E7B7A7C7B78797D828484F7
:103FF8008688898A8B8D8D8D8C8B89847F79757461
:104008007575767878767474777A7A797D8286870A
:10401800878888858382817E7D7F80817F81828475
:104028008B918C8D8D807A736F6D696C6D74757DD5
:10403800817A818792879298848B8A8C8A7F7F7E07
:104048007A797476777E7A767C828382878489848B
:104058007E7E7B787678777879797A7E7C7B7B7DB3
:1040680081868A898A8B87817E7B7C7A797B7D8130
:1040780081898C8C8E8D8E8984807F7A7874727316
:10408800727676787A7E7C7A7875757474777E81A4
:104098008A90929796929693949694958D877E7926
:1040A80074706C68686B6D6C67626566687172784D
:1040B8007C7D84878A8A8D8F8D908C8E908985836C
:1040C800838E94949591908D888078726B6D7375BA
:1040D80077767B817F81817B7D7E808181807B7A01
:1040E80077787C7F82837E7A767B8483878B8E91B8
:1040F8008C867D757474777B808383878787877FB9
:1041080078746C6A686867666A6A6F7272757983B0
:104118008C93A2AEB5B7AEADAAA294857C746F6F2E
:104128006C6F747C898B8B8B8076746A615C5A5A4D
:104138005E5E606E7A7E828484868E9B9FA1A19C3F
:104148009D968C82757272746E6E7A81898C8E954A
:1041580096928B7E766B5F554E5259626A70777A6B
:10416800828C909BA5B4C0BDB3A89B8B7D74645F03
:1041780064605F67748591979B98938C877D726460
:104188005955514E575E6570797D81899395969EF4
:10419800A7AAA59A8B7C7473727574777A80878ABC
:1041A800959A97989289847E715F554D4D505156D6
:1041B8005E6A78838F9FABB8BCBABFBDB09F8F795A
:1041C800676866606161646B757F84898B8A8B8898
:1041D80083817F746764615C5F62606266737E84FA
:1041E8008B949EA5A7A6A0988E85807A7E848081D0
:1041F8007F8081848A8C8E8F8E8B847E797772689B
:104208005E5754575B5D6876859398A1A7A6A09BD7
:10421800948C8B857A7571737A7E82827C797D83A2
:1042280086888A8D8C88868580766A5E534B4D5346
:10423800545E687284949B9E9F9C9FA3A1A1A39B9C
:10424800908A8485837F7D76737376777B8080867A
:104258008A888680786F686360666E70737C7F84F6
:104268008886838589898C8F91928E89847C7877DA
:1042780077787876757C808894999CA09B8F8781C5
:1042880077685E5651575F656B6C69707D848B9A51
:10429800A0A3A8A9AAA59E94857A7979726D6A6562
:1042A80068717780888A8D8F8F8D9091857D756BE9
:1042B80065615D57575C626F79808C959EA5A5A650
:1042C800A3998F847B767876767F7D7A7F807F81CD
:1042D800868A8A8A888383837E776C605C6062675B
:1042E800747A7F8890999DA2A6A19B989387796DEF
:1042F8005F5D676D75787477797C85919FA2A2A2BE
:104308009D988F816C594E474A51545C646E7B84EA
:104318008D94989C9B999B9E99908C878187888384
:10432800827E777275797A81899297918A827A707A
:1043380063605E5E646870767D878A8C93979898D0
:10434800958F8A8784858175757976797D7F808256
:1043580084889096968F837C77726F665E58565CD9
:10436800646F7272777B81868F979A9FA1A3A8A5A5
:104378009A8F847C7A7979797472767D8286888638
:104388008A8B8988827D787067656A6A696A6C6FCA
:10439800707374757C8590989A9B9B97918C8A8C86
:1043A8008D8F908B85837E7471747881817A787211
:1043B8006E6E6D68646562656C70777C848D929BA7
:1043C800A4A7A8A29A948E887E7875788083837D26
:1043D8007875747A82858A8D8C8B868582796D66EC
:1043E8006361636158565D68757F879295969BA057
:1043F800A09D9A938F908F8B857D7573777A7A7D40
:104408007E818B908D8882796D6664636262676A4B
:10441800717B8086898A8C90949696908E92918EE4
:1044280089817F7C7979787A7B7B7F848C9395925C
:104438008C847A71685B4F4B4F59606670777C85C6
:104448008C929BA3A3A4A6A4A297877E7978797956
:10445800756F6A6E787F82868887898A8886817A6E
:104468007573787B7C776F6F6F71767A7A79808ACB
:104478009296938C878484838485838384878D90A4
:104488008E898683828079706963666A6B6F706EC5
:10449800717576787D7F80858990948D8A898A8FD9
:1044A800918F88818080828486827B7C7C7F8180DA
:1044B800807F7D7E828788847F7B767575726B6B43
:1044C80070747A7D7A79797D828588898C909397C2
:1044D8009B9A92898580807E70686467717A8180F2
:1044E8007E7D7D82878A8A86848182827C777270CB
:1044F80073797D79706E717780878B87878C8E90C2
:104508008E8988888D9193938D888079797D7C7444
:104518006F6F72787776757174797A7A78777C7F2D
:1045280083898C8A88847E7E807A746E6C747E8897
:104538008C8D8E8D8B8A8E8E8987838186878585E3
:104548007F7B7C7F7F76706E70747A7D78767776E5
:104558007A7C7B7D78767A8288898B8985878D922B
:104568008E85827F8286827E7A78797B7B78787B5B
:104578007E838A8F8C87837E7B7F7D736D66677071
:10458800797D7C7E808385868886858483898A8AEE
:10459800898584878B8D867C7572747C807E7C7E11
:1045A8008083848284827E7D808484848079797DFE
:1045B80083827D7B77777A7976706D6F737677797A
:1045C8007E82858B949C9D98918A8A888279706C6A
:1045D8006A717A7D7D7C7B7D8184838686848A8CE2
:1045E8008D8F8A8281838581766D6664696F727327
:1045F80076787E8585888685878A8E8F908D878256
:10460800858C8D847F7B7A7F7E7B78747376787BCC
:104618007B7C7D8085898C8B8A847A7A7A767066B1
:1046280063686E757B808587878A8E8D8D8B878979
:104638008D8B8E8F8A87858686837D747172767955
:10464800787B7C7B7D7D7F7F7B797B7D808283808F
:104658007A777E8483817A73777D7C7C7A7B7E818E
:1046680084888D8B898C909597958F837E7F7D7AB2
:1046780073686469727A7E7D7A7A7D7F81827F78B9
:10468800767C7F82817F7F80868A88857D77777C2C
:104698008183838385888886837F7E7E8085888BD7
:1046A8008A85848889898881777474716F6A666B52
:1046B8006F7274787A7D8081888E92938B848786D6
:1046C80084817C78777A81878885848483858586C8
:1046D800817D7F81868B8A837C7E81838178706BE4
:1046E8006A6E74767674757A7C7E7B7878797E8348
:1046F8008B8D88878B9297979187828281817D782D
:1047080077767A818383838486888A8B8F887D7D78
:104718007D7B786F6866696D7171707374767A8065
:104728007F8080858B8D93969692908F90918A80CA
:1047380079737579777A7E81848182837E787779B7
:104748007C7F7E7D7E79777D83817A7272747471C5
:104758006F7274767B81868A8C8C8E92959B9C96E0
:1047680093908E8F8A847C767C7F7C777674717147
:104778007073767370777A7E82817F7D7E7E827E8B
:1047880076716A6C74777B81868D9194928E8D8C0C
:104798008C8E90928F8C8A898D8B89857D757371AB
:1047A800706A65676A6F717472747773757A7F81DE
:1047B8007E7F7F808283838281858B8E908F8F8C92
:1047C8008C8E8C8A87888984888C8A88868683825E
:1047D8007B757169646466696F6E707274767576DC
:1047E80076767980868B8F8F8F959C9D9B938D880D
:1047F800817F7E7C79797B828382817F7C7A7F81CD
:1048080087847D7B767B7A7874706F717472737429
:104818007072787B7D7D7C8184878C929594959746
:104828009A98938D847E7B78797D7B7C7E7D7F7B57
:1048380078777676777D7C81837F7F8383848078A1
:104848007573706B6C6E6E737C82858A8B8A8C8BA9
:10485800888E928F8E8B8B8E8E8C87828082807FC3
:104868007F7B7676737476727374777A7A7A7D7BC7
:10487800797A7C7D7D776E6F7172777C7F81878B8B
:104888008D8F908D8E9195999A9A96959290918DFB
:104898008076716E6A646566686C74767474706E1E
:1048A80070707377787779797D83888A898C8E930D
:1048B80091908F8E8D8E8D8E8E898686888586873F
:1048C80088898784807E79706865646665656767AE
:1048D8006A6C6D707275777C858E94989A9B9B9F95
:1048E800A39D97908983807F7E7D7E84868684823F
:1048F8007C777371737273716F7073797A7675756B
:10490800767A7D7A77797A7A7E7F7F848687898BB3
:104918008F929392949796948F89847F7D7B7873F6
:10492800727577757370707171747B8285888A88E7
:10493800898B89817B78756E6A6C6B6E767E8283D3
:1049480086878B88868A8D9091908D8E91908C86A3
:1049580082807E7D7A7576757275777678797A79C0
:10496800787A80827F7F818383817B7A757477767A
:1049780075787A7B7D7F808183858990979B9B9CC6
:104988009794989890857E78706B6766676C727755
:104998007879787674707274747778787A8084838A
:1049A800807F8286888A89898E8F90929395918E4E
:1049B8008D8B8683858381838583807A77716D6FFC
:1049C8006D6A6A6C6D6B6B6D6D6D6E73777E8789C2
:1049D8008C908F91979694918D8886858386898C03
:1049E8008F8E8D8C898379767575757474737477E9
:1049F80078777674737273736F717375797D80834A
:104A0800807F808386898E90959A9D9E9C99948DAF
:104A18008886817B7675747272706D6A6C71747B2E
:104A28008181818387878584807B7572716F6E71C0
:104A3800747A7E83848385848282868A8E8F91931A
:104A4800959493908C8A86817E7B77737475737541
:104A580075777773737475767C7E7E81858585849A
:104A68007E7B7675777573777C7E818383898E8F5D
:104A780094979A9C959395918D8A837972706D6CB1
:104A88006B6E74767A7E7C787673726E71767775D3
:104A9800767A7C7E7D7B7D7E828787888B8D9298D7
:104AA800979695928F8B878686838486848587835D
:104AB8007E797674706E6B68666668666466696C23
:104AC80071767A7E85898B8E929698989694908F37
:104AD8008F8C898D908F8F8C89868079757372758C
:104AE8007674747879797A79767576747170717468
:104AF8007375777777787774757C83888E959FA59B
:104B0800A8ABA69D98948F867E7975726F6C69683C
:104B18006A6B6D737A7D808385838585817D7975E0
:104B2800726E6A696B6E757E7F81888B8B8B8C92B7
:104B3800959495979592908B878683827F7B7876DC
:104B4800777A78767777777A797473747476787DEC
:104B580083828182807B777674707074777A7E81A5
:104B6800848A919395999D9E9C9A9996938F878014
:104B78007C756E6A66656A6C72787A7A7A7A767308
:104B880075787673737374767676797D8489898C73
:104B98009092969B9E9C9996918B84827E797A7C42
:104BA8007D818584807D7D7D7C7C7A7772706F6B5A
:104BB80068656465676B6E7074777C81879094987C
:104BC8009B9C9D9C98938F8F90918F8C8B87817DD8
:104BD80079757374747272727273747677797C7A79
:104BE800777677787676767374777675777B7E8343
:104BF800898F989BA0A7A6A09D98928A837D787597
:104C080072716E6B6D6C6A6D7174787D82868B8D36
:104C18008C8A88837F7B756F6A676A6E6D6E767A19
:104C28007D83898D8F9496989B9C999593908C8A77
:104C380087817B7774747573706E70727272757712
:104C48007A7C7E8487858484807B7979767270709B
:104C58007073797A7B82888D9294969795949593C0
:104C68008F908F8B8A857E7975716E6D7276777964
:104C78007D807C7A7A787879787370706B696B6EDE
:104C880072797D8287898C9294969A9A9999938D54
:104C98008A848384838588898584837C7976716F07
:104CA8006F6F7074746E6D6D6D7172717376797CDF
:104CB80080808287898C9192918E8B8C8D8F929235
:104CC8008E8B8C8B8784827E7A7A797676726F70F7
:104CD80071767B7D7D7F7E7E807F7A787773717039
:104CE8006D6A696C73797F8992979BA0A2A2A29F33
:104CF8009A918B86807973706F6F7171717271720E
:104D0800767A7D82878C8E8D8B887F7974717172AB
:104D18007272717073757579808284898C8D8E8EAC
:104D28008F8D8F9295948F8A85887E82857F7E79F4
:104D3800737471686D727B8286858A88817E7974C6
:104D480073746A686A6D70706E737C828A8D9194D0
:104D580098979796939493938F8F8E8A827A72718D
:104D6800706A6B6E757E86868889857C736F6C68C1
:104D78006362636A737B8186898C8D8D91928F8C37
:104D88008E8E8C8B837E8185858584878C898683AE
:104D98008384807874798084817F7F7B7068605B8E
:104DA8005652545C6875828B949DA2A5A59D9793D5
:104DB8008D8B8B8A87857E7A7D7F7A7B7B7C8081D1
:104DC800837E7B79726E737E868B8B8A8A877C72F0
:104DD8006865656162676A727B828B919397999522
:104DE8009392918E8C86807E7D79797D7B7A7B7F8C
:104DF8008386817A7F807875798290979397958654
:104E080076675D5D5B59616B737E878B8E8D888558
:104E180083828280808182858A8D8D8E908F8F8B10
:104E28008788847F7672756F646571818C90949D94
:104E38009D90857D79746A6364696E6D6C6E706E21
:104E48007075787C818890989B9E9F9C9D9F989474
:104E58008B837E7C7C716F74726C6F7D8C9597965A
:104E6800958B7C6E5D534D484C5A67747F868B904A
:104E78009293938F91959595948B86827C7D818072
:104E8800828280868E8A8587867F77787E84847EF4
:104E98007C7E7A6E645C5A595A5E6E7B8490979BCE
:104EA8009F9A928D85817F80858886868987898B60
:104EB80086868483868A857B7B777271747A8688F6
:104EC80086888780736965616162636D7980878C84
:104ED8008F918F89888A898A8D8D8B8A898781812C
:104EE800807978787B7C7D77727779757379879309
:104EF800979DA09D9483746E676362606672777DE8
:104F08008585837F7B797A7A7D7F858B91979A9542
:104F1800918F8B88827C7E807A7474747270707AB8
:104F28008993989A99958A79716D655F5D616D73BA
:104F3800757A7D7F818082858585888B8E8E8C8D24
:104F480088888E8A86847E7F80807E7F81817F7E2E
:104F580083909794908B8478695E565151555F6F12
:104F68007F868D9597969089837D7B7C7C7D8081DB
:104F78007F7E828C9092979494999A9387827B7083
:104F88006B6A6C74787A7C7D7A736A656564676E1F
:104F9800767F888F969998938A817E7D7B7E848799
:104FA800898B8D8C8C8E8986817A7A7676716C71F4
:104FB800747578828C999E9F9F968B7E71665D53DF
:104FC8004F4F53616F798792959698979694918EE3
:104FD8008B8A8A847B77787A797C7A797C81817CE0
:104FE800817F7D7E8089949D9F9C91877E6F65627D
:104FF8005D56575D69757E878E9497948D88847DFC
:10500800797B7D7F80818080878A888886878B8C62
:10501800867E7B777473757F8C9394979791887B42
:105028006E645E5754555A666F79868D90918E8B53
:105038008B898483848487898A9094908F908D8DBE
:105048008E8B807875736E6A6E737982878889898A
:10505800827A7674726D69686970777B8086898DCB
:105068008F8D8C88827F807F8084838387888B8DD7
:105078008C8B8A87847F7C787471747B81888B8C15
:105088008A87837C746D69656263666C71747982E2
:105098008B91989B9B9A99968E867F79736F727382
:1050A8007476797D848B8E91918F8E8C88837D7AAE
:1050B8007A79787674716F707376797C7E7F818661
:1050C800888785817C787778757272757A7F838610
:1050D800898C8D90919292908D8A878785817F7D2A
:1050E8007A7A7D7C7B7C7B7B7F7F7F7E7B7A787303
:1050F800706E6B696B6D727A8084898C8F909193D6
:10510800928E8E8B86817C77767575787E82848682
:105118008C91949593908C87827B726C6765666995
:105128006B6D70737577797C7F8284878B8E8F8D9A
:1051380088848282818181818285888A8B8A898913
:10514800898986837F797573737373747476797AB2
:105158007D80818284858583807D79767676787A6C
:105168007B7C8084878887868687888683838281FC
:105178008181807F7F7C7C7B7C7E7F808284868A25
:105188008D8C8A8886837F7974706E6D6D6F72736B
:10519800767A7E7F80828485878A8B8B89858281D7
:1051A800807E7D7D7D7F808180817F7E7E7F828401
:1051B800848383838485858381807F7E7C797776E9
:1051C800787B7E8082817E7A777373727273777A46
:1051D8007F868A8B8C8E91939392908D8B86817E1D
:1051E800797674747475757677787B7F818588880D
:1051F8008684817E7B7775767677787878797B7EFA
:105208008287898C8E90908F8B8683807C79777546
:105218007373767A7D7F84868687868685817C7996
:105228007878797B7B7B7C7E808283838385878982
:10523800898682807E7B79787676787B7F83878A79
:10524800898989888786837F7C787674706D6C6D90
:105258006F73797E8184888C91949393928F8B87D6
:10526800817B77757475757779797979797C7E80A2
:10527800828385868684817E7C7C7D7E7F7F818219
:1052880083848482838383817E7A77767575777C3D
:1052980081838487898A8A88878687888886827DA9
:1052A80078757373757676787A7D81818181828449
:1052B800858584817E7B79787979797A7A7B7E8114
:1052C800838586888B8E908F8C888582807D797780
:1052D80079797A7A797A7B7A7A7B7B7C7E7F80800F
:1052E8008183838381807F7E7D7B7A7A7C7E7F7FCA
:1052F8008081828383848482818181838585868677
:1053080086868684817F7E7D7E7C7A7976736F6FD0
:105318007174787A7B7F8488898786888B8D8E8D57
:105328008B898785817D79757371707071727477D7
:105338007A80888D8F908E8A87837E7A7877797A3B
:105348007B7C7D7E7F818488898886848282807E3A
:105358007D7E7F7F7F7D7B797673707174787C7FAB
:105368008083868786858586878683818080807FFF
:105378008183878C8F908D8885807B777473737712
:105388007A7D7F80848685817C79746E6866676A99
:1053980070777E8487898B8E90908F8C898A8D8B8D
:1053A8008A8985898A868685827D7A747377787AF0
:1053B8007C7C7C7F7F7E7D78716F6D6765656774A7
:1053C8008189939B9FA2A19B97948A827E77737110
:1053D8006B6C7174777B83858685817F8183858CEF
:1053E8009193918C83796E645D59595A5C616875A3
:1053F800869199A0A4A7A59C928C847F7C75747BC8
:105408007A797A777A7E7F7E7F817F828485888B9E
:105418008D8D8D87807A736F6B666364656770772F
:105428008392979596928D8C8681818080817C79F4
:105438007B79797B7F828385827D7C7C7C8082847A
:105448008D9496948C8178716E676465686E7479B2
:10545800828C8D8D89827D777170757A82888A8831
:105468008E949496938D8B88827F747174747A7FEE
:1054780084898F8E877E756C696965686C727C8596
:105488008B92948E8A8179726C6A717C87909397DB
:10549800928D8C89827E7E7A7A79787A80818186EB
:1054A80088949C9B968B7B6E675F5A595C66707577
:1054B8007A7E8185817F7D8084878C92999C9C9758
:1054C80090877C7C7A777575767A8084888A8C8CCC
:1054D8008E8C888A8A8881796E655E58575A636B84
:1054E800737B848C93928F8C8684828385898A8C43
:1054F8008C8685807E8183827F817F85857F7C7B8A
:105508007E8085858A909391897D726C64636569D4
:105518007175797C7B7B7873716E70777F89959CC8
:105528009EA09F9B948A8888847F78787B7B7A7AF0
:10553800767A7B797E7F848C8F8D8A8078736D6D87
:105548006D6B6C71757B7D7979787B7E8083888EB5
:105558009699959189817B7C8185868286888A8CBB
:10556800837B7A777A8283888E8E8C83766C635F6E
:105578006166696F757A808282807E808182858685
:10558800878D9294928D888481838383817E8080A5
:105598008487817B7B7B80858588898682796D6518
:1055A80060606A70777D838A8D8B847F7E82858434
:1055B80084878B8D8A847D79767275797E808286E0
:1055C8008D908B887F81838286878B90918B827464
:1055D8006865636A6E7074767A7F7E7C7976797E88
:1055E8008184868A8F8F908F8D8A8484858581783F
:1055F80077767B7C787573777F8A91999C9C9B9151
:10560800837369666C727374737476746F6A686B8B
:10561800747E868C91969A98938C857E7F7E7D8009
:10562800797C7C7F85807E82868D9594989A9792E6
:105638008474685F5B5E60636A6E74787A7B7B7D76
:10564800808385878687898C8B8987878385898BE3
:10565800908A8A8C8F90837A77777C8080848584FF
:1056680081766C6360636A757D82868685837F7ABE
:105678007776787C7C7D7D80878B8C8B8A888C94F0
:1056880092928B8A8D88877B7473767D83858788D1
:1056980087857C72686061676E737275787B7D7EC2
:1056A8007E7E81858A8F9090929696938C86817C57
:1056B8007D777A77757B77797976767B7F8A909311
:1056C8009895928A7C706560666D767877787A7E30
:1056D80081817F8184898C8A89878788888380797A
:1056E800777C7B7E79797F7E817C797C828A9295B2
:1056F80097989592887B706664696E7473737476F4
:105708007A7B7976798084878686888D8E8C878265
:105718007D7C82818582838583837A75777C828983
:105728008A8E91908F867C736B6C71787E7E7E7D7D
:105738007C7B7977737274757777777A81868B8AB1
:105748008988899194948E8B8A8A877F7572767EF0
:1057580087898B88878580786E67686E777C79788B
:10576800747578767775787F828485858990939427
:105778008F898381848688817D7F80807A6F707924
:105788008794979796928D8373696161666A6F6E45
:10579800707074787D8083888B8F8F8D8C8B8C89CB
:1057A800857F7A7476787B827E8286888C898485E8
:1057B800878F9594928D877F73655C575C656E7251
:1057C80074797C82848486868789898A8886868794
:1057D8008785827F7E848689878586817D767170BC
:1057E800757980868C919390897D757171787B7FAE
:1057F8007F7E7D7976726E6F6E7174777B80858A15
:105808008E908F8E8B888D8D8F878584818177711F
:1058180071757D878D9293928F887E746A696C709A
:10582800767474727275757879797E8085868788C2
:105838008B8D8D88837F81888A8C83868282807A0B
:105848007A787F868D9193908B82776D6763686C89
:10585800737A7A7E7B7B7B797C7A7D81848784836B
:1058680084888886827D7B82868A8784898B8C85DA
:105878007D7A80868D90919290897F6E625C5C6360
:10588800686E6E7075797E7F8188888C8C8C8E8D21
:105898008D8D8C88827C79787E7F837D82828483DB
:1058A80078777A82898C8D908F8E877D716B676B04
:1058B80072757D7B7F807B7B75757A787B7A7D833B
:1058C80086878887898A8885878B8E918889858449
:1058D8007E716F6C737A83878B8E8F8D857A7470E7
:1058E80074787C7F79787471736E717474797C8143
:1058F800868B8F949694908A8385858783797D7A21
:105908007D7A6F6F727D898E939496948F82777269
:105918006C717072737077757375737B7E7F81811C
:10592800868889878684827F7B757C81888A888E31
:105938008C8F8C878484888D8E908D8A83776B5E1C
:105948005A5961687077787E8083868488878584D1
:10595800828384848384868483807B80858C8B8502
:10596800888689877C79797D86898A8C8C8A8477F0
:105978006C6A686E7172767477757376777B7D7CE6
:105988007D8084898C8D908F8E8D8986898A8A8482
:105998007D817F7F7872737880888E9194948F84CC
:1059A800766A66666B6C6F727378767475787F83C7
:1059B800828083888D908F90908F8C847F85888853
:1059C80080787C7D7F78706C717C858E8E949794BE
:1059D8008F7F726E696F70767B787C757475767957
:1059E800797A7A7F818485878C8E8D8C848187876C
:1059F8008C84818584877D77777E868B8F8E938E46
:105A0800867A696460626B6A73767A8480807E8342
:105A18008989857E828183827E8081837F7679826F
:105A2800888D868A8D908D837C7D878A8A888B8CE9
:105A38008A8475676263686D6F797F83867D7979FB
:105A48007B7E7B77777D7F807F838B8C908D85882D
:105A58008E8E8D84878A8580766F747E8288878D06
:105A680096938B7A6D6E6B6A6A69727577746E6ECF
:105A780073797C7F7F868C8E9292979A96918A848E
:105A880084817C76707B7E77716D74808586909931
:105A9800A09F94897F736B635F6369717374737379
:105AA800767A7E8084878B8B8A8A8B8D8B86827EA2
:105AB8007E83878984848B89837D777A7C7B7E83C8
:105AC8008B918A807A6D6A66646D6F798186898C1C
